:100000000C9468000C9490000C9490000C94900058
:100010000C9490000C9490000C9490000C94900020
:100020000C9490000C9490000C9490000C94900010
:100030000C9490000C9490000C9490000C94900000
:100040000C94130D0C9490000C9456020C943002F6
:100050000C9490000C9490000C9490000C949000E0
:100060000C9488020C94900056657273696F6E3A16
:10007000200000000000240027002A0000000000EB
:10008000250028002B000000000023002600290086
:10009000040404040404040402020202020203032E
:1000A0000303030301020408102040800102040836
:1000B00010200102040810200000000800020100C6
:1000C000000304070000000000000000F015EA151E
:1000D00011241FBECFEFD8E0DEBFCDBF11E0A0E0FE
:1000E000B1E0E0E7F6E302C005900D92A83FB1074A
:1000F000D9F723E0A8EFB1E001C01D92A13FB207FC
:10010000E1F710E0C7E6D0E004C02197FE010E94AD
:100110001219C636D107C9F70E94810D0C942B1B0A
:100120000C940000FC01538D448D252F30E0842F6A
:1001300090E0821B930B541710F0CF96089501970F
:100140000895FC01918D828D981761F0828DDF01F9
:10015000A80FB11D5D968C91928D9F5F9F73928FBA
:1001600090E008958FEF9FEF0895FC01918D828DAF
:10017000981731F0828DE80FF11D858D90E008957C
:100180008FEF9FEF0895FC01918D228D892F90E0D4
:10019000805C9F4F821B91098F739927089585E199
:1001A00093E00E94C30021E0892B09F420E0822F14
:1001B0000895FC01848DDF01A80FB11DA35ABF4F24
:1001C0002C91848D90E001968F739927848FA68956
:1001D000B7892C93A089B1898C9180648C93938D7D
:1001E000848D981306C00288F389E02D80818F7D6D
:1001F00080830895EF92FF920F931F93CF93DF9325
:10020000EC0181E0888F9B8D8C8D981305C0E88967
:10021000F989808185FD24C0F62E0B8D10E00F5FDB
:100220001F4F0F731127E02E8C8DE8120CC00FB6F4
:1002300007FCFACFE889F989808185FFF5CFCE01E7
:100240000E94D900F1CF8B8DFE01E80FF11DE35A1A
:10025000FF4FF0820B8FEA89FB898081806207C0A3
:10026000EE89FF896083E889F989808180648083D1
:1002700081E090E0DF91CF911F910F91FF90EF907F
:100280000895CF93DF93EC01888D8823C9F0EA8924
:10029000FB89808185FD05C0A889B9898C9186FD7F
:1002A0000FC00FB607FCF5CF808185FFF2CFA8897C
:1002B000B9898C9185FFEDCFCE010E94D900E7CF9F
:1002C000DF91CF91089580E090E0892B29F00E9482
:1002D000CF0081110C940000089585ED8093BC003F
:1002E0008091BC0084FDFCCF1092F00208954091F3
:1002F000A502262F30E0240F311D21323105DCF418
:100300002091F0022430C9F4FC0180E090E08617CF
:1003100058F43091A5022191DC01AD57BD4FA30FD8
:10032000B11D2C930196F3CF8091A502680F6093C5
:10033000A50280E0089581E0089582E0089508957F
:10034000E0911F0280912002E81730F4F0E0E150C4
:10035000FE4F808190E008958FEF9FEF0895909178
:100360001F0280912002981750F4E92FF0E0E1502D
:10037000FE4F208130E09F5F90931F0202C02FEF5D
:100380003FEFC90108958091200290E020911F0263
:10039000821B91090895CF92DF92EF92FF920F9303
:1003A0001F93CF93DF937C01262F972F8A01809193
:1003B000F102882391F0C62FD72F6E01C40ED51EEF
:1003C000CC15DD0571F06991D701ED91FC9101909B
:1003D000F081E02DC7010995F3CF642F822F0E9491
:1003E0007701C801DF91CF911F910F91FF90EF909E
:1003F000DF90CF900895CF93DF931F92CDB7DEB7F4
:1004000069832091F1022223D1F02091140320323C
:1004100040F021E030E0FC013383228380E090E073
:1004200015C08091F202E82FF0E0ED50FD4F998168
:1004300090838F5F8093F2028093140305C061E084
:10044000CE0101960E94770181E090E00F90DF914C
:10045000CF910895089580E090E008950E940F1BC9
:100460001F920F920FB60F9211242F933F934F9329
:100470005F936F937F938F939F93AF93BF93EF930C
:10048000FF9385E193E00E94D900FF91EF91BF9126
:10049000AF919F918F917F916F915F914F913F911C
:1004A0002F910F900FBE0F901F9018951F920F92D3
:1004B0000FB60F9211242F938F939F93EF93FF9377
:1004C000E0912503F09126038081E0912B03F091C8
:1004D0002C0382FD12C0908180912E038F5F8F7359
:1004E00020912F03821751F0E0912E03F0E0EB5E94
:1004F000FC4F958F80932E0301C08081FF91EF9177
:100500009F918F912F910F900FBE0F901F90189574
:100510001F920F920FB60F9211242F933F934F9378
:100520005F936F937F938F939F93AF93BF93EF935B
:10053000FF938091B900887F803609F49CC068F5EC
:10054000883209F45BC090F4803109F454C038F467
:10055000882309F4F6C0883009F44DC0F6C088310C
:1005600009F44CC0803209F45DC0EFC0803409F456
:1005700068C048F4803309F455C0883309F0E5C0F9
:100580008093EE02D8C0803509F44FC0883509F455
:100590005DC0883409F0D9C0D6C0883909F4C7C015
:1005A000A8F4883709F467C038F4883609F463C0C2
:1005B000803709F460C0C9C0883809F4B8C08039F0
:1005C00009F45FC0803809F0C0C05BC0803B09F40B
:1005D00086C038F4803A09F466C0883A09F47FC0CE
:1005E000B4C0803C09F4A7C0883C09F4A4C0883B8F
:1005F00009F48AC0AAC08091CB0210C09091ED028C
:100600008091EC02981770F5E091ED0281E08E0F79
:100610008093ED02F0E0E453FD4F80818093BB00B6
:1006200085EC86C08093EE028EC0E091ED0281E001
:100630008E0F8093ED028091BB00F0E0E453FD4FFC
:1006400080839091ED028091EC026EC0E091ED020A
:1006500081E08E0F8093ED028091BB00F0E0E453C7
:10066000FD4F80838091EF0281116DC081E0809306
:10067000CA0284EA61C083E08093F0021092C9024A
:10068000CFCF8091C902803208F051C0E091C902F9
:1006900081E08E0F8093C9028091BB00F0E0E755A6
:1006A000FD4F8083BDCF85EC8093BC001092F0029B
:1006B0008091C902803230F4E091C902F0E0E75540
:1006C000FD4F10826091C90270E0E091A702F091A5
:1006D000A80289EA92E009951092C90236C084E026
:1006E0008093F0021092A6021092A502E091A3025C
:1006F000F091A40209958091A502811105C081E0C5
:100700008093A50210928302E091A60281E08E0FF1
:100710008093A602F0E0ED57FD4F80818093BB00EF
:100720009091A6028091A502981708F479CF85E8E8
:100730008093BC000AC085EC8093BC001092F0024C
:1007400004C01092EE020E946D01FF91EF91BF91E3
:10075000AF919F918F917F916F915F914F913F9159
:100760002F910F900FBE0F901F901895FF920F932F
:100770001F93CF93DF93EC01FF24F394F60E2E81A9
:10078000F21679F10F8118852150B9F06F3F59F4B5
:1007900030E040E050E06FEF7FEF80E090E00E94BB
:1007A0001A18B9010CC08F2D90E0982F8827019757
:1007B000622F70E00E94EA1802C060E070E0F80169
:1007C0004A815B81CF01801B910B8417950740F410
:1007D0004081469FC001479F900D11249193F0CF17
:1007E000FE82DF91CF911F910F91FF9008958F921C
:1007F0009F92AF92BF92CF92DF92EF92FF92CF93F0
:10080000DF93DC018D919C9111976817790790F522
:100810004A01AA24BB24C82DC32ED42EE52EFF24C2
:100820009C2DD22F16968C911697882361F0889E66
:1008300040011124C92DC89E600111249D2D289FBF
:1008400090011124D32FFB01EE0FFF1F6E0F7F1FAE
:100850001796ED91FC911897E60FF71F15968C915E
:10086000DF01129680FF03C09083C18302C0C08362
:100870009183DC93DF91CF91FF90EF90DF90CF9049
:10088000BF90AF909F908F9008950F931F93DC01BE
:100890008D919C9111976817790740F516968C9168
:1008A0001697882361F0489FA0011124452F289FA7
:1008B00090011124232F089F80011124012FFB0197
:1008C000EE0FFF1F6E0F7F1F1796ED91FC9118978B
:1008D000E60FF71F15968C91DF01129680FF03C07B
:1008E0002083418302C0408321830C931F910F9189
:1008F0000895CF92DF92EF92FF920F931F93CF93C1
:10090000DF93CDB7DEB729970FB6F894DEBF0FBEE1
:10091000CDBF8C01DC0117968D919C911897892B86
:1009200009F49DC00E94D00BF801C184D284E384F5
:10093000F484DC01CB018C199D09AE09BF09C29773
:10094000A105B10578F3F894828193819A83898314
:100950000780F085E02D7F01BFEFEB1AFB0A808155
:100960008987F80195810584F685E02DD8011F96C9
:100970008C9191FF30C09081982B988790818095C1
:1009800089238F838F818C8388E08B8358856F8147
:1009900049853B812C8189819A81D701508347FD0C
:1009A000252F3A952083262F39F0441F00C00000E0
:1009B0006083000000C0F2CF38E04D9160830000FA
:1009C000019761F7D8011E96FC93EE931D97498716
:1009D0003B832C833AC09081982B98879081809597
:1009E00089238F838F818E8388E08D8358856F81E3
:1009F00049853D812E8189819A81D701508347FDA8
:100A0000252F00C000C0208300C000C000C000C06F
:100A100000C060830000262F3A9541F0441F00007B
:100A200000C000C000C000C000C0E8CF38E04D9159
:100A300000C0608300C0019709F7D8011E96FC939F
:100A4000EE931D9749873D832E839A8389837894FB
:100A50000E94D00BF801618772878387948729965B
:100A60000FB6F894DEBF0FBECDBFDF91CF911F91BF
:100A70000F91FF90EF90DF90CF9008950F931F9309
:100A8000CF93DF93EC01798368838B01000F111FF3
:100A9000060F171F1B830A834C832D8350E0FA0136
:100AA000E057FF4FE491F0E0EE0FFF1FE458FF4FD7
:100AB000859194919E878D87FA01EC55FF4F449163
:100AC0004F87C8010E94181998878F83009749F0B3
:100AD000A80160E070E0DF91CF911F910F910C941D
:100AE0001D1BDF91CF911F910F9108950F93CF930D
:100AF000DF93C0E0D0E000E020E040E0BE0184ED04
:100B000093E00E94450420E040E0BE0184EC93E0C5
:100B10000E9445042196CB34D10569F784ED93E01A
:100B20000E94790484EC93E0DF91CF910F910C94B3
:100B300079044F925F926F927F928F929F92AF92C1
:100B4000BF92CF92DF92EF92FF920F93CF93DF93FA
:100B50008231910509F478C184F48530910509F456
:100B600092C024F4049709F46BC009C28630910541
:100B700021F1419709F4B3C002C28531910509F40E
:100B8000C0C19CF4449709F0FAC1E0916802C0E04A
:100B9000D0E0F0E0CF01880F991FE80FF91FEC5A61
:100BA000FE4FD280E180F08098C18134910509F434
:100BB0006FC082349105D1F0E2C181E0909168026A
:100BC000911101C080E080932602DF91CF910F91B7
:100BD000FF90EF90DF90CF90BF90AF909F908F905D
:100BE0007F906F905F904F900C9476058091680293
:100BF000813041F493E09093270280930301109297
:100C000029020BC08111BBC11092270281E08093A1
:100C10002902809303010E94760580915C02DF9196
:100C2000CF910F91FF90EF90DF90CF90BF90AF905A
:100C30009F908F907F906F905F904F900C948C0A54
:100C4000809168028B3008F48AE0809300018091E3
:100C50000001823818F082E8809300016091000161
:100C600084EC93E00E94B6036091000184ED93E070
:100C70000E94B60384ED93E00E94790484EC93E033
:100C80000E947904CACF8091680280932702C5CF61
:100C90008091680220916902622F70E090E0FC016F
:100CA000EE0FFF1F8E0F9F1FFC01EC5AFE4F2C34DE
:100CB00050F06C54710902812181408184EC93E0F1
:100CC0000E944504AEC061507109028121814081BA
:100CD00084ED93E00E94450484ED93E0A4C0C091AC
:100CE0006902E0906802EA9489E1E89E802D11246F
:100CF00040906A02512C612C712C742C662455246E
:100D0000442490916B02492F50E060E070E0BA01FA
:100D100055274427440E551E661E771E90916D027E
:100D2000B301A201490F511D611D711D40906C025C
:100D3000512C612C712C762C652C542C4424440E9F
:100D4000551E661E771E8B34A8F18B54C12CD12CF6
:100D5000D0E09E01220F331FC20FD31FCC5ADE4FAB
:100D60005E0192E0A90EB11C4E01EFEF8E1A9E0AB1
:100D7000E82EF12CD301C2010C2C04C0B695A79526
:100D8000979587950A94D2F780FF0CC0F5010081F2
:100D9000F40120814881B6016E0D7F1D84EC93E043
:100DA0000E944504FFEFCF1ADF0A89E1C816D1047B
:100DB00009F733C0A12CB12CD0E09E01220F331FC4
:100DC000C20FD31FCC5ADE4F4E0192E0890E911C08
:100DD0006E01EFEFCE1ADE0AE82EF12CD301C2012C
:100DE0000A2C04C0B695A795979587950A94D2F7D3
:100DF00080FF0CC0F4010081F60120814881B5011B
:100E00006E0D7F1D84ED93E00E944504FFEFAF1A45
:100E1000BF0A89E1A816B10409F784ED93E00E94A6
:100E2000790484EC93E0DF91CF910F91FF90EF90E4
:100E3000DF90CF90BF90AF909F908F907F906F90FA
:100E40005F904F900C94790480916902C091680280
:100E5000C15099E1C99FC02D112490E0CB3408F115
:100E6000CB54E12CF12CFC01EE0FFF1F8E0F9F1FC6
:100E7000FC01EC5AFE4FD0E0B280C180D080B701B7
:100E80006C0F7D1F0B2D2C2D4D2D84EC93E00E94BB
:100E900045049FEFE91AF90AE9E1EE16F10479F742
:100EA000BCCFEC2EF12CFC01EE0FFF1F8E0F9F1F0D
:100EB000FC01EC5AFE4FC280D180D081C75E0C2D60
:100EC0002D2D4D2FB70184ED93E00E944504FFEFD7
:100ED000EF1AFF0ACE11F3CFA0CF0D2D2E2D4F2DDF
:100EE000BE0184ED93E00E9445042E2D4F2DBE01DE
:100EF00084EC93E00E9445042196CB34D10569F738
:100F00008CCF809168028A30D1F5809125028111C1
:100F100036C0C0E0D0E000E020E04BE7BE0184ED49
:100F200093E00E94450420E04BE7BE0184EC93E08F
:100F30000E9445042196CB34D10569F784ED93E0F6
:100F40000E94790484EC93E00E94790468EE73E0D7
:100F500080E090E00E94F50B61E087E0DF91CF91A7
:100F60000F91FF90EF90DF90CF90BF90AF909F9048
:100F70008F907F906F905F904F900C944D0BDF910E
:100F8000CF910F91FF90EF90DF90CF90BF90AF90F7
:100F90009F908F907F906F905F904F900895EF9209
:100FA000FF920F931F93CF93DF93CDB7DEB76C976C
:100FB0000FB6F894DEBF0FBECDBF81E08093040171
:100FC00082E08093050183E08093060184E08093B2
:100FD000070185E08093080186E08093090165E0C0
:100FE00070E080E090E00E945D0DFB01EC5FFE4F41
:100FF00080818093F9018AE080838E010F5F1F4F0B
:10100000D8011D928A95E9F724E0E22E21E0F22E24
:10101000F70120E030E081918A3051F0D901AA0F28
:10102000BB1FA00FB11F90E08D939C932F5F3F4F8C
:10103000B1E0EA30FB0779F765E070E080E090E02E
:101040000E945D0D660F771FF801E60FF71F2081E4
:101050003181E4E0F1E04AE0808190E0821793077B
:1010600009F44083319681E0EA30F807A9F720932C
:10107000FA01FE013B9688E0DF011D928A95E9F7AF
:10108000E4E0F1E020E030E081918A3061F0D901C4
:10109000AA0FBB1FA00FB11F90E01B969C938E93CD
:1010A0001A972F5F3F4FB1E0EA30FB0769F764E022
:1010B00070E080E090E00E945D0D660F771FF80100
:1010C000E60FF71F22853385E4E0F1E04AE08081F6
:1010D00090E08217930709F44083319681E0EA306B
:1010E000F807A9F72093FB011C8A1B8A1E8A1D8A18
:1010F000188E1F8AE4E0F1E020E030E081918A3030
:1011000061F0D901AA0FBB1FA00FB11F90E0539649
:101110009C938E9352972F5F3F4F91E0EA30F907EF
:1011200069F763E070E080E090E00E945D0D660F7B
:10113000771FF801E60FF71F22893389E4E0F1E019
:101140004AE0808190E08217930709F4408331964A
:10115000A1E0EA30FA07A9F72093FC011A8E198E54
:101160001C8E1B8EE4E0F1E020E030E081918A30BB
:1011700061F0D901AA0FBB1FA00FB11F90E05996D3
:101180009C938E9358972F5F3F4FB1E0EA30FB0757
:1011900069F762E070E080E090E00E945D0D660F0C
:1011A000771FF801E60FF71F208D318DE4E0F1E0A5
:1011B0004AE0808190E08217930709F440833196DA
:1011C00081E0EA30F807A9F72093FD018091FE0144
:1011D000D7019D917D019A3009F0892FBAE0EB1675
:1011E000B1E0FB06A9F78093FE016C960FB6F89468
:1011F000DEBF0FBECDBFDF91CF911F910F91FF904A
:10120000EF9008950F931F938095853560F4682FB4
:10121000660F860F282F209590E0A0E0B0E0BC017B
:10122000CD01822B21C08A3A80F48555982F990FE1
:10123000980F692F6095462F50E060E070E08A01BA
:101240009B01192BC901B8010FC08A5A682F660F7C
:10125000860F282F209590E0A0E0B0E0DC019927D0
:101260008827BC01CD01722B1F910F910895109218
:10127000280285E193E00E94C300181619064CF479
:1012800081E08093280285E193E00E94A100809391
:1012900061020895682F85E193E00C94FA00CF93E2
:1012A000DF93C1E080912802882309F46EC0109278
:1012B0002102109222021092230210922402C09363
:1012C000F8018091610290916002853559F4911185
:1012D00009C080915F02803FD9F4C0935E02C09341
:1012E000600216C080935F02992391F0E0915E0244
:1012F000E23019F480935D0207C0E33028F090914A
:101300005D02915090935D02F0E0EE59FD4F8083B5
:1013100080915E028F5F813218F480935E0204C078
:1013200010925E021092600280916002882351F157
:1013300080915D02811126C080915E02843010F19F
:1013400010926002D09165028091670290916602CE
:10135000913041F09230A1F490E00E949905D09331
:101360005C020EC080EF0E944A0985E50E944A098E
:1013700081E00E944A098D2F0E944A090E94840A36
:1013800010925E020E9437098DCFDF91CF910895B0
:10139000AF92DF92EF92FF920F931F93CF93DF9361
:1013A000CDB7DEB7D82EF62E022F1B850E94370947
:1013B0008091280281110E944F09D0926802F09218
:1013C000690200936A02E0926B02A0926C02109391
:1013D0006D0281E190E00E94990581E2E2E6F2E08F
:1013E000DF011D928A95E9F7DF91CF911F910F914F
:1013F000FF90EF90DF90AF900895833081F028F454
:10140000813099F08230A1F008958730A9F08830BA
:10141000B9F08430D1F4809180008F7D03C0809139
:1014200080008F7780938000089584B58F7702C005
:1014300084B58F7D84BD08958091B0008F7703C0FF
:101440008091B0008F7D8093B0000895CF92DF929D
:10145000EF92FF920F931F93CF93DF936C017A016A
:101460008B01C0E0D0E0CE15DF0589F0D8016D9189
:101470008D01D601ED91FC910190F081E02DC60126
:101480000995892B11F47E0102C02196ECCFC7018A
:10149000DF91CF911F910F91FF90EF90DF90CF9050
:1014A0000895CF93DF93E9ECF0E08491E5EBF0E071
:1014B000D491E1EAF0E0C491CC2391F081110E9433
:1014C000FD09EC2FF0E0EE0FFF1FEA57FF4FA5914B
:1014D000B491EC91ED2381E090E021F480E002C032
:1014E00080E090E0DF91CF910895682F82EB93E048
:1014F0000C94FB01682F85E193E00C94FA00682FAF
:1015000085E193E00C94FA0042E050E06FEC71E06A
:1015100085E193E00C94260ACF93C82F80EF0E94B8
:101520004A0985E50E944A0982E00E944A098C2FF7
:101530000E944A0980E10E944A09CF910C94840AD2
:10154000AF92BF92CF92DF92EF92FF920F931F93D1
:1015500094E0499FF0011124EA5FFE4FA280B12C74
:10156000C12CD12CE180F12C00E010E0208130E092
:1015700040E050E093811F921F921F929F930E9420
:10158000C8090F900F900F900F901F910F91FF902F
:10159000EF90DF90CF90BF90AF900895209114030B
:1015A00090911303213208F04AC08091F00281111A
:1015B000FCCF32E03093F00231E03093EF023FEFA6
:1015C0003093EE021092ED022093EC02A3EFB2E012
:1015D0004CEC52E0FA013E2F341B321718F43D91C7
:1015E0003193F9CF1092CB022091CB02990F922B1D
:1015F0009093CB029091CA02913061F41092CA028A
:101600009091CB029093BB009091BC0093FDF8CFDA
:1016100095EC01C095EE9093BC009091F002923051
:10162000E1F39091EE029F3F79F08091EE028032DB
:1016300041F08091EE02803331F084E005C081E01A
:1016400003C082E001C083E01092F2021092140302
:101650001092F1020895CF93DF93009779F0FC0187
:1016600001900020E9F73197AF01481B590BBC01ED
:1016700085E193E00E94260AEC0102C0C0E0D0E0C0
:1016800042E050E06FEC71E085E193E00E94260AB1
:101690008C0F9D1FDF91CF9108951F93CF93DF9300
:1016A000282F30E0F901E854FF4F8491F901EC55FF
:1016B000FF4FD491F901E057FF4FC491CC23C9F0FB
:1016C000162F81110E94FD09EC2FF0E0EE0FFF1F95
:1016D000E458FF4FA591B4918FB7F894111105C04C
:1016E0009C91ED2FE095E92302C0EC91ED2BEC935A
:1016F0008FBFDF91CF911F910895CF93DF9390E03B
:10170000FC01EC55FF4F2491FC01E057FF4F849101
:10171000882361F190E0880F991FFC01EE58FF4F7C
:10172000C591D491FC01E458FF4FA591B49161118A
:1017300009C09FB7F8948881209582238883EC9113
:101740002E230BC0623061F49FB7F8943881822F4A
:10175000809583238883EC912E2B2C939FBF06C00A
:101760008FB7F894E8812E2B28838FBFDF91CF911C
:1017700008958E3008F08E508770806480937C00CE
:1017800080917A00806480937A0080917A0086FD4F
:10179000FCCF809178002091790090E0922B089501
:1017A0003FB7F8948091E9039091EA03A091EB038D
:1017B000B091EC0326B5A89B05C02F3F19F0019608
:1017C000A11DB11D3FBFBA2FA92F982F8827820FC7
:1017D000911DA11DB11DBC01CD0142E0660F771F17
:1017E000881F991F4A95D1F708958F929F92AF92C3
:1017F000BF92CF92DF92EF92FF926B017C010E9429
:10180000D00B4B015C01C114D104E104F104F1F0EF
:101810000E94D00BDC01CB0188199909AA09BB09E8
:10182000883E9340A105B10570F321E0C21AD108AA
:10183000E108F10888EE880E83E0981EA11CB11C17
:10184000C114D104E104F10419F7DDCFFF90EF904A
:10185000DF90CF90BF90AF909F908F900895AF9200
:10186000BF92CF92DF92EF92FF920F931F93CF938D
:10187000DF93C82FD42F6130710509F055C01F9236
:101880001F921F928FE38F9356ECA52EB12CC12C83
:10189000D12C18EFE12EF12C00E010E021E030E037
:1018A00040E050E06D2F8C2F0E94C80964E670E084
:1018B00080E090E00E94F50B1F921F921F9280EC37
:1018C0008F9379E2A72EB12CC12CD12C17E0E12EF9
:1018D000F12C00E010E020E030E0A9016D2F8C2F0A
:1018E0000E94C80964E670E080E090E00E94F50B79
:1018F0001F921F921F921F92F0E1AF2EB12CC12CAC
:10190000D12CE12CF12C870120E030E0A9016D2FD2
:101910008C2F0E94C8098DB79EB70C960FB6F8940D
:101920009EBF0FBE8DBF58C06F3F7F4F09F064C090
:101930001F921F921F921F9280E1A82EB12CC12CE2
:10194000D12CE12CF12C870120E030E0A9016D2F92
:101950008C2F0E94C80964E670E080E090E00E944D
:10196000F50B1F921F921F9280EC8F9399E2A92E84
:10197000B12CC12CD12C17E0E12EF12C00E010E0AD
:1019800020E030E0A9016D2F8C2F0E94C80964E689
:1019900070E080E090E00E94F50B1F921F921F9272
:1019A0008FE38F9336ECA32EB12CC12CD12C18EFE2
:1019B000E12EF12C00E010E021E030E040E050E0CA
:1019C0006D2F8C2F0E94C8098DB79EB70C960FB64D
:1019D000F8949EBF0FBE8DBF64E670E080E090E09B
:1019E000DF91CF911F910F91FF90EF90DF90CF90FB
:1019F000BF90AF900C94F50BDF91CF911F910F9199
:101A0000FF90EF90DF90CF90BF90AF9008952FB7E9
:101A1000F8946091E5037091E6038091E70390915B
:101A2000E8032FBF08951F920F920FB60F92112453
:101A30002F933F938F939F93AF93BF938091E50331
:101A40009091E603A091E703B091E8033091E4039D
:101A500023E0230F2D3720F40196A11DB11D05C0F1
:101A600026E8230F0296A11DB11D2093E403809365
:101A7000E5039093E603A093E703B093E803809116
:101A8000E9039091EA03A091EB03B091EC03019676
:101A9000A11DB11D8093E9039093EA03A093EB038A
:101AA000B093EC03BF91AF919F918F913F912F9194
:101AB0000F900FBE0F901F901895CF93DF9300D01B
:101AC00000D0CDB7DEB7611571058105910579F0BC
:101AD0009B01AC0169833A834B835C830E94E816C7
:101AE00029813A814B815C810E941A1803C060E011
:101AF00070E0CB010F900F900F900F90DF91CF917E
:101B00000895CF93DF93CDB7DEB768970FB6F894FB
:101B1000DEBF0FBECDBF789484B5826084BD84B52E
:101B2000816084BD85B5826085BD85B5816085BDD8
:101B300080916E00816080936E0010928100809190
:101B40008100826080938100809181008160809318
:101B50008100809180008160809380008091B1003D
:101B600084608093B1008091B00081608093B00068
:101B700080917A00846080937A0080917A008260FC
:101B800080937A0080917A00816080937A008091BE
:101B90007A00806880937A001092C10010922A0225
:101BA00061E08091D8030E947D0B60E08091D803B2
:101BB0000E944D0B61E08091C8030E947D0B60E0A4
:101BC0008091C8030E944D0B10910001612F84ED9C
:101BD00093E00E94B603612F84EC93E00E94B60369
:101BE00068EC70E080E090E00E94F50B8EE00E94CF
:101BF000B90B8C0180E10E94B90B800F911F65E049
:101C000070E00E94FE18809302011F921F921F92A3
:101C100091EC9F9339E2A32EB12CC12CD12C17E06B
:101C2000E12EF12C00E010E020E030E0A901682F67
:101C300081E00E94C8091F921F921F9250EC952EBE
:101C40009F9220E030E0A9016091020182E00E94B1
:101C5000C8091F921F921F921F92A12CB12C6501DF
:101C6000E12CF12C870120E030E0A9016091020114
:101C700083E00E94C8091F921F921F921F9220E0CA
:101C800030E0A9016091020184E00E94C8091F921E
:101C90001F921F9280E48F9369E2A62EB12CC12C73
:101CA000D12C17E0E12EF12C00E010E020E030E034
:101CB000A9016091020185E00E94C8091F921F924C
:101CC0001F929F9220E030E0A9016091020186E01E
:101CD0000E94C809E0912503F091260382E08083E9
:101CE000E0912103F09122031082E0912303F0910F
:101CF00024038FEC808310922D03E0912903F0914F
:101D00002A0386E08083E0912703F09128038081F5
:101D100080618083E0912703F091280380818860AF
:101D20008083E0912703F09128038081806880837D
:101D3000E0912703F091280380818F7D808360E00C
:101D400081E10E947D0B61E087E00E947D0B60E0F5
:101D500087E00E944D0B0E94070D60934B02709329
:101D60004C0280934D0290934E020FB6F894DEBF62
:101D70000FBECDBF08E610E0F801649161116AC0A2
:101D80004091C2035091C3036091BE037091BF03A1
:101D900085E193E00E94260A42E050E06FEC71E09A
:101DA00085E193E00E94260A10921F021092200201
:101DB0001092F202109214031092F00211E01093AC
:101DC000EF021092CA0261E082E10E944D0B61E0D5
:101DD00083E10E944D0B8091B9008E7F8093B90002
:101DE0008091B9008D7F8093B90088E48093B8001A
:101DF00085E48093BC001093F10208E6009313037E
:101E00001092F202109214038FE090E00E94750A83
:101E100080E890E00E94750A0E94CE0A1093F102B9
:101E2000009313031092F2021092140380E190E0E9
:101E30000E94750A84E090E00E94750A0E94CE0A12
:101E400068EE73E080E090E00E94F50B222423947A
:101E5000312C14C1E0911503F09116030190F0812B
:101E6000E02D85E193E009950F5F1F4F892B09F065
:101E700083CF86CF10921F0280932002863009F014
:101E80008FC182EB93E00E94AF012C0182EB93E0C3
:101E90000E94AF01982E998782EB93E00E94AF01D8
:101EA0003C0182EB93E00E94AF01882E9D8782EB7C
:101EB00093E00E94AF015C0182EB93E00E94AF01CE
:101EC0008D839F8B9A8A198A69897A89640D751D19
:101ED00086E0759567958A95E1F7072E000C880BCB
:101EE000990B0E94FD1620E030E040E05EE30E9486
:101EF0005C170E94B41869837A838B839C83298141
:101F00003A8130935802209357028C8A1B8A6B893E
:101F10007C89660D771D96E0759567959A95E1F732
:101F2000072E000C880B990B0E94FD1620E030E074
:101F300040E05EE30E945C170E94B4186B017C01D4
:101F400070935602609355023D813E8B1D8A6D89C8
:101F50007E896A0D7B1D26E0759567952A95E1F7C8
:101F6000072E000C880B990B0E94FD1620E030E034
:101F700040E05EE30E945C170E94B4187093540224
:101F80006093530220912602222309F416C1F09097
:101F90002602FF2051F00E94070D60934F027093BC
:101FA000500280935102909352020E94070D0091BB
:101FB0004B0210914C0220914D0230914E02DC01F7
:101FC000CB01801B910BA20BB30B8197A105B1052F
:101FD00078F10E94070D60934B0270934C0280933E
:101FE0004D0290934E0280EF90E00E947F0A85E5BB
:101FF00090E00E947F0A86E090E00E947F0AC20182
:102000000E947A0A892D99850E947A0AC3010E944A
:102010007A0A882D9D850E947A0AC5010E947A0A53
:102020008D819F890E947A0A8FEF90E00E947F0A3B
:10203000809157029091580290934A0280934902EE
:1020400080915502909156029093480280934702E6
:1020500080915302909154029093460280934502DE
:10206000809125028111BCC10E94510A21E0892B77
:1020700009F420E0209325020E94630110922902B6
:102080000E9437098091280281110E944F097090A7
:10209000270280915B0287110E94760571100DC0A6
:1020A0008091590290915A02019711F50E9476058C
:1020B00010925A02109259021BC083E0781609F45C
:1020C000DAC1871508F497C391E07912FAC27092C9
:1020D000030130925A02209259020E94CF0799EFD1
:1020E000892E91E0992E80912702813009F4C0C297
:1020F0008091270280935B0281E08093F10288E661
:10210000809313031092F2021092140382E090E085
:102110000E94750A0E94CE0A8091F0028111FCCFC4
:1021200081E08093F0028093EF02FFEFF093EE02E4
:102130001092ED0295E09093EC028093CB02809197
:10214000CB02806D8093CB028091CA02813061F412
:102150001092CA028091CB028093BB008091BC0098
:1021600083FDF8CF85EC01C085EE8093BC008091A3
:10217000F0028130E1F38091ED02863018F4809115
:10218000ED0201C086E0ACECB2E02FEF31E0F901E6
:102190009E2F921B981708F06DCE9D919193F8CFCA
:1021A0001D821F8AA12CB12C812C1D86612C712CC3
:1021B000912C1986412C512C85CEE981FA81F7FFAB
:1021C00003C0F195E195F109F0933A02E0933902E9
:1021D0009601D7FE04C0222733272C193D093093DE
:1021E000380220933702AB0177FF04C044275527FC
:1021F000461B570B50933602409335022E0F3F1F5C
:102200008901040F151F8FE00E94B90BBC01990FC3
:10221000880B990B0E94FD1623E333E343E550E45A
:102220000E945C1720E030E040E85AE30E945C170F
:1022300020E030E040E251E40E945C176B017C0139
:102240006093410270934202809343029093440250
:10225000033011050CF0CCC00E94510A892B09F003
:10226000C7C00E94070D00914F02109150022091AB
:10227000510230915202DC01CB01801B910BA20B69
:10228000B30B8093210290932202A0932302B09378
:1022900024028091210290912202A0912302B09108
:1022A000240282309B41A74BB1053CF11A8219826E
:1022B00000E020E04BE769817A8184ED93E00E94A1
:1022C000450420E04BE769817A8184EC93E00E9429
:1022D000450489819A8101969A8389838B3491057B
:1022E00039F784ED93E00E94790484EC93E00E9436
:1022F000790461E087E00E944D0B20E030E040E689
:1023000050E4C701B6010E94F6161816ACF00E9400
:10231000510A892B89F480913F02909140020196E5
:102320009093400280933F02883C91050CF071C06D
:1023300020912702211167C080912502882309F48A
:1023400026CE1092270280913D0290913E02843B5E
:1023500091052CF030923C0220923B0209C08B3058
:10236000910534F422E030E030933C0220933B02AC
:1023700020913B0230913C023A8329832130310580
:1023800011F4029706C049815A814230510529F45F
:10239000029690933E0280933D0210E0D0903D0261
:1023A000D394D394E12EF12C0D2D20E040E0B70121
:1023B00084ED93E00E94450420E040E0B70184EC06
:1023C00093E00E9445045981150F1B3438F384EDC6
:1023D00093E00E94790484EC93E00E947904D7CDC5
:1023E0000E94510A892B09F03FCEF1103DC03CCE2E
:1023F0000E94070D60934F02709350028093510228
:102400009093520246CF44970CF496CF233009F4B0
:1024100093CFE12CF12C00E020E048ECB70184EDF3
:1024200093E00E94450420E048ECB70184EC93E07F
:102430000E9445049FEFE91AF90AEBE4EE16F10455
:1024400051F784ED93E00E94790484EC93E00E94BC
:10245000790460ED77E080E090E00E94F50B61E0A8
:1024600087E00E944D0B68CF1092260282EE91E029
:102470000E942B0BF9CD0091530210915402E09071
:102480005502F0905602C0905702D09058028091A9
:102490000301882329F10E9476050E94CF0768E195
:1024A00070E080E090E00E945D0DDC01CB010196C0
:1024B000A11DB11D8093020149EFA42E41E0B42E6D
:1024C00091E0F50141915F0160910201892F988FA0
:1024D0000E94A00A988D9F5F973099F71092030190
:1024E0008091F801882321F0809129028111BBC0DD
:1024F000C601D7FE03C091958195910920913302C1
:1025000030913402280F391F309334022093330264
:10251000C701F7FE03C09195819591094091310261
:1025200050913202480F591F5093320240933102AA
:10253000C80117FF03C091958195910960912F0201
:1025400070913002860F971F9093300280932F0274
:1025500060912E026F5F6F3118F460932E022AC0D3
:1025600010922E022739310534F4473951051CF4F5
:102570008739910584F01092340210923302109240
:102580003202109231021092300210922F0281E03A
:1025900080932D020FC010923402109233021092D9
:1025A0003202109231021092300210922F028EE10C
:1025B0008093010180912D02882309F454C08091F9
:1025C0002C028F5F80932C02909101018917D8F51E
:1025D00080912B028F5F80932B02843008F443C0DC
:1025E0000E94760510922B020E94CF0768E170E0EE
:1025F00080E090E00E945D0DDC01CB010196A11D01
:10260000B11D8093020139EFE32E31E0F32E11E08A
:102610000E9437098091280281110E944F09809100
:102620002702833001F5F70141917F01609102019A
:10263000812F0E94A00A82ED91E00E942B0B1F5F68
:10264000173031F710C010922D0210922C02109208
:102650003402109233021092320210923102109220
:10266000300210922F0230925A022092590240CD2D
:10267000F40161914F01660F660F63501F921F9224
:102680001F92FFEFFF93A12CB12C6501AA94E12CBE
:10269000F12C8701EA942FEF30E040E050E0872DE5
:1026A0000E94C80964E670E080E090E00E94F50BAB
:1026B00073940F900F900F900F9027E0721213CD2C
:1026C00017CDE2E07E128EC081E08093030130924C
:1026D0005A0220925902E12CF12C412C512C370145
:1026E00042015201C12CD12C8091D4039091D50389
:1026F000880F991FC816D90678F5C3016FEF70E0EF
:102700000E94FE183BE4C316D10454F00E94020953
:102710009B01AC01B5016B54710984EC93E007C0D7
:102720000E9402099B01AC01B50184ED93E00E9477
:10273000F7030E94370943E0640E711C53E0A50EB5
:10274000B11C80912802882319F00E944F09D0CC37
:1027500083E0C80ED11CC8CF84ED93E00E947904B9
:1027600084EC93E00E94790462E370E080E090E002
:102770000E94F50B00E010E08091D4039091D50306
:10278000880F991F08171907E0F420E030E0A9012D
:10279000B4010B3411052CF06B54710984EC93E0F7
:1027A00002C084ED93E00E94F7030E94370993E092
:1027B000890E911C809128028111C7CF0D5F1F4F98
:1027C000DBCFEFEF4E1A5E0AF3E04F16510409F02B
:1027D00086CF2FEFE21AF20AE11431E0F30609F096
:1027E0007CCF86CC109221021092220210922302FA
:1027F000109224027DCCF4E07F1295C181E0809399
:10280000030130925A022092590266E170E080E0A2
:1028100090E00E945D0D20912702243009F068CCE1
:102820009B01AC012F5F3F4F4F4F5F4F2D833E8386
:102830004F8358874D815E816FEF7FEF84E090E09A
:102840000E942F0C80912702843071F08091270222
:10285000843009F0A3C04D815E8161E070E083E0C7
:1028600090E00E942F0C9AC05CE4852E51E0952EDA
:1028700080912702843051F7F401868197819C0171
:10288000990F440B550B29833A834B835C838481D6
:1028900095819C01990F440B550B29873A874B87EB
:1028A0005C87828193819C01990F440B550B2D8786
:1028B0003E874F87588B40805180052C000C66085E
:1028C00077083C813F934B814F935A815F93898175
:1028D0008F93A984BA84CB84DC84ED84FE840F8535
:1028E0001889A30192016D8181E00E94C8099C8131
:1028F0009F93EB81EF93FA81FF9329812F93A98412
:10290000BA84CB84DC84ED84FE840F851889A3010E
:1029100092016D8182E00E94C8093C813F934B8106
:102920004F935A815F9389818F93A984BA84CB8412
:10293000DC84ED84FE840F851889A30192016D81EA
:1029400085E00E94C8099C819F93EB81EF93FA81F7
:10295000FF9329812F93A984BA84CB84DC84ED84EE
:10296000FE840F851889A30192016D8186E00E9483
:10297000C80964E670E080E090E00E94F50B38E062
:10298000831A91080FB6F894DEBF0FBECDBF54E294
:10299000851651E0950609F06BCF58CF8D809E804B
:1029A00085E0880E911C80912702843039F4A401BF
:1029B0006FEF7FEF83E090E00E942F0C8091270261
:1029C000843069F080912702843009F0A4C0A4010A
:1029D00061E070E084E090E00E942F0C9CC0ECE28B
:1029E000F1E0FE87ED8780912702843059F7ED856D
:1029F000FE85868197819C01990F440B550B298395
:102A00003A834B835C83848195819C01990F440BAD
:102A1000550B2D833E834F835887828193819C0180
:102A2000990F440B550B29873A874B875C87408069
:102A30005180052C000C660877083C813F934B8140
:102A40004F935A815F9389818F93AD80BE80CF80F1
:102A5000D884E984FA840B851C85A3019201682D32
:102A600081E00E94C8099C819F93EB81EF93FA81DA
:102A7000FF9329812F93AD80BE80CF80D884E984D5
:102A8000FA840B851C85A3019201682D82E00E94C7
:102A9000C8093C813F934B814F935A815F93898151
:102AA0008F93AD80BE80CF80D884E984FA840B8573
:102AB0001C85A3019201682D85E00E94C8099C81B4
:102AC0009F93EB81EF93FA81FF9329812F93AD8040
:102AD000BE80CF80D884E984FA840B851C85A3014D
:102AE0009201682D86E00E94C80964E670E080E0EB
:102AF00090E00E94F50B4D855E85485F5F4F5E87D5
:102B00004D870FB6F894DEBF0FBECDBF4455514080
:102B100009F069CF57CF0E94370980912802882396
:102B200009F4E6CA12CE25E072125CCE81E08093F1
:102B3000030130925A022092590200E010E0E12C89
:102B4000F12CC12CD12C6091D4037091D503CB0111
:102B5000880F991FC816D90638F5C7010E94EA18D0
:102B6000862F800F4BE4C416D10450F00E94020956
:102B70009B01AC01B6016B54710984EC93E007C072
:102B80000E9402099B01AC01B60184ED93E00E9412
:102B9000F7030E943709F394809128028111D5CD63
:102BA0008FEFC81AD80ACFCF84ED93E00E94790442
:102BB00084EC93E00E9479040E94370980912802F6
:102BC0008111C3CD0F5F1F4F011595E0190709F063
:102BD000B6CF8ECA8091BE039091BF030C94AD19FD
:102BE000109218031092170388EE93E0A0E0B0E073
:102BF0008093190390931A03A0931B03B0931C03B3
:102C00002FEA31E0309316032093150325EC30E0D2
:102C1000309322032093210324EC30E030932403EB
:102C20002093230320EC30E03093260320932503E8
:102C300021EC30E0309328032093270322EC30E08E
:102C400030932A032093290326EC30E030932C03A1
:102C500020932B0310922E0310922F031092300317
:102C6000109231031092B5031092B4038093B6030F
:102C70009093B703A093B803B093B90381EC91E0AC
:102C80009093B3038093B20323E046E06BE470E0DB
:102C900084ED93E00E943E0523E045E06BE470E0A4
:102CA00084EC93E00E943E051092BF031092BE0395
:102CB0001092C1031092C0031092C3031092C2037A
:102CC00066E070E080E090E00E94451A009799F07D
:102CD0009093BF038093BE0325E030E03093C1039F
:102CE0002093C0032091C2033091C303232BC1F46E
:102CF000FC01108215C08091BE039091BF03009724
:102D000011F00E94AD191092BF031092BE031092F1
:102D1000C3031092C2031092C1031092C00308951E
:102D200025E030E03093C3032093C20362EF71E0EB
:102D30000C94241B8F929F92AF92BF92CF92DF92FE
:102D4000EF92FF92CF93DF93EC01688179818A81C2
:102D50009B81611571058105910521F464E279ED8E
:102D60008BE597E02DE133EF41E050E00E941A1827
:102D700049015A019B01AC01A7EAB1E40E9439184C
:102D80006B017C01ACEEB4EFA50194010E944718E1
:102D9000DC01CB018C0D9D1DAE1DBF1DB7FF03C017
:102DA0000197A109B04888839983AA83BB83BC019A
:102DB000CD019F77DF91CF91FF90EF90DF90CF9083
:102DC000BF90AF909F908F9008950E949A1608959B
:102DD00082E291E00E949A16089560932201709316
:102DE0002301809324019093250108950E943817B0
:102DF00008F481E00895E89409C097FB3EF49095AB
:102E00008095709561957F4F8F4F9F4F9923A9F0C3
:102E1000F92F96E9BB279395F69587957795679552
:102E2000B795F111F8CFFAF4BB0F11F460FF1BC096
:102E30006F5F7F4F8F4F9F4F16C0882311F096E929
:102E400011C0772321F09EE8872F762F05C06623D7
:102E500071F096E8862F70E060E02AF09A95660F90
:102E6000771F881FDAF7880F9695879597F9089549
:102E7000990F0008550FAA0BE0E8FEEF161617068B
:102E8000E807F907C0F012161306E407F50798F0F3
:102E9000621B730B840B950B39F40A2661F0232B0C
:102EA000242B252B21F408950A2609F4A140A69588
:102EB0008FEF811D811D08950E946F170C94E017FC
:102EC0000E94D21738F00E94D91720F0952311F0F4
:102ED0000C94C9170C94CF1711240C9414180E9449
:102EE000F11770F3959FC1F3950F50E0551F629F46
:102EF000F001729FBB27F00DB11D639FAA27F00D53
:102F0000B11DAA1F649F6627B00DA11D661F829F79
:102F10002227B00DA11D621F739FB00DA11D621F5E
:102F2000839FA00D611D221F749F3327A00D611D7B
:102F3000231F849F600D211D822F762F6A2F11245D
:102F40009F5750409AF0F1F088234AF0EE0FFF1F90
:102F5000BB1F661F771F881F91505040A9F79E3FE7
:102F6000510580F00C94C9170C9414185F3FE4F3DA
:102F7000983ED4F3869577956795B795F795E7953D
:102F80009F5FC1F7FE2B880F911D9695879597F946
:102F9000089597F99F6780E870E060E008959FEFDB
:102FA00080EC089500240A941616170618060906E0
:102FB000089500240A9412161306140605060895AF
:102FC000092E0394000C11F4882352F0BB0F40F437
:102FD000BF2B11F460FF04C06F5F7F4F8F4F9F4F77
:102FE000089557FD9058440F551F59F05F3F71F0F9
:102FF0004795880F97FB991F61F09F3F79F0879560
:103000000895121613061406551FF2CF4695F1DFE8
:1030100008C0161617061806991FF1CF8695710578
:10302000610508940895E894BB2766277727CB01AC
:1030300097F90895052E97FB1EF400940E9431180D
:1030400057FD07D00E94831807FC03D04EF40C9460
:10305000311850954095309521953F4F4F4F5F4F18
:10306000089590958095709561957F4F8F4F9F4FF4
:1030700008950E94A518A59F900DB49F900DA49F40
:10308000800D911D11240895B7FF0C9439180E94EA
:103090003918821B930B08952F923F924F925F92A3
:1030A0006F927F928F929F92AF92BF92CF92DF9258
:1030B000EF92FF920F931F93CF93DF93CDB7DEB7BD
:1030C000CA1BDB0B0FB6F894DEBF0FBECDBF099451
:1030D0002A88398848885F846E847D848C849B84A8
:1030E000AA84B984C884DF80EE80FD800C811B81B6
:1030F000AA81B981CE0FD11D0FB6F894DEBF0FBEE5
:10310000CDBFED010895A1E21A2EAA1BBB1BFD0144
:103110000DC0AA1FBB1FEE1FFF1FA217B307E407B6
:10312000F50720F0A21BB30BE40BF50B661F771F0E
:10313000881F991F1A9469F76095709580959095EE
:103140009B01AC01BD01CF010895A29FB001B39FC7
:10315000C001A39F700D811D1124911DB29F700DA0
:10316000811D1124911D08950E94BB186894B1110E
:103170000C94141808950E94F91788F09F5798F03E
:10318000B92F9927B751B0F0E1F0660F771F881F6C
:10319000991F1AF0BA95C9F714C0B13091F00E9486
:1031A0001318B1E008950C941318672F782F88270F
:1031B000B85F39F0B93FCCF3869577956795B395AD
:1031C000D9F73EF490958095709561957F4F8F4F1C
:1031D0009F4F0895AA1BBB1B51E107C0AA1FBB1F2D
:1031E000A617B70710F0A61BB70B881F991F5A9593
:1031F000A9F780959095BC01CD01089597FB072E06
:1032000016F4009407D077FD09D00E94EA1807FC55
:1032100005D03EF4909581959F4F089570956195E6
:103220007F4F0895EE0FFF1F0590F491E02D099454
:10323000CF93DF938230910510F482E090E0E0912B
:10324000EF03F091F00320E030E0C0E0D0E03097F1
:1032500011F14081518148175907C0F048175907AB
:1032600061F482819381209719F09B838A832BC01C
:103270009093F0038093EF0326C02115310519F0D8
:103280004217530718F49A01BE01DF01EF010280D3
:10329000F381E02DDCCF2115310509F1281B390B15
:1032A0002430310590F412968D919C9113976115FD
:1032B000710521F0FB019383828304C09093F00396
:1032C0008093EF03FD01329644C0FD01E20FF31F2E
:1032D00081939193225031092D933C933AC02091D0
:1032E000ED033091EE03232B41F42091280130911E
:1032F00029013093EE032093ED03209126013091B4
:1033000027012115310541F42DB73EB740912A011F
:1033100050912B01241B350BE091ED03F091EE034E
:10332000E217F307A0F42E1B3F0B2817390778F09C
:10333000AC014E5F5F4F2417350748F04E0F5F1FFB
:103340005093EE034093ED038193919302C0E0E02C
:10335000F0E0CF01DF91CF9108950F931F93CF93AA
:10336000DF93009709F48CC0FC013297138212821C
:103370000091EF031091F0030115110581F42081F4
:103380003181820F931F2091ED033091EE032817B6
:10339000390779F5F093EE03E093ED0371C0D8019E
:1033A00040E050E0AE17BF0750F412962D913C91CB
:1033B0001397AD012115310509F1D901F3CF9D0115
:1033C000DA013383228360817181860F971F821710
:1033D000930769F4EC0128813981260F371F2E5F8E
:1033E0003F4F318320838A819B8193838283452B46
:1033F00029F4F093F003E093EF0342C01396FC939B
:10340000EE931297ED01499159919E01240F351FBA
:10341000E217F30771F480819181840F951F029662
:1034200011969C938E938281938113969C938E9395
:103430001297E0E0F0E0D80112968D919C911397DD
:10344000009719F0F8018C01F6CF8D919C919801AD
:103450002E5F3F4F820F931F2091ED033091EE03BB
:103460002817390769F4309729F41092F003109265
:10347000EF0302C0138212821093EE030093ED0358
:10348000DF91CF911F910F910895A0E0B0E0EBE4A0
:10349000FAE10C945018EC01009721F4CB010E9442
:1034A0001819B8C0FC01E60FF71F9C012250310922
:1034B000E217F30708F4ACC0D9010D911C911197E4
:1034C00006171707B0F00530110508F49FC0C801B2
:1034D00004978617970708F499C002501109061B34
:1034E000170B019311936D937C93CF010E94AD193B
:1034F0008DC05B01A01AB10A4C01800E911EA091F3
:10350000EF03B091F00340E050E0E12CF12C109774
:1035100009F44AC0A815B905D1F56D907C901197B2
:10352000630182E0C80ED11CCA14DB0480F1A30140
:103530004A195B096A0182E0C80ED11C1296BC9040
:1035400012971396AC91B5E0CB16D10440F0B2823D
:10355000A38351834083D9016D937C930AC00E5F8E
:103560001F4FC301800F911FF90191838083EB2DC1
:10357000FA2FE114F10431F0D7011396FC93EE9386
:10358000129744C0F093F003E093EF033FC08D9196
:103590009C9111974817590708F4AC017D011296C8
:1035A0000D90BC91A02DB3CF8091ED039091EE03CF
:1035B00088159905E1F446175707C8F4809126014C
:1035C00090912701009741F48DB79EB740912A0151
:1035D00050912B01841B950BE817F907C8F4F09361
:1035E000EE03E093ED03F901718360830FC0CB011B
:1035F0000E9418197C01009759F0A801BE010E9491
:10360000141BCE010E94AD19C70104C0CE0102C037
:1036100080E090E0CDB7DEB7EEE00C946C1881E06E
:1036200090E0F8940C942B1BFB01DC0102C001908C
:103630000D9241505040D8F70895DC0101C06D93C0
:1036400041505040E0F70895FB01DC0101900D92DC
:103650000020E1F7089510E0C7E6D0E004C0FE01C5
:103660000E9412192196C836D107C9F7F894FFCFE6
:10367000195A0101010203040506000010000001AF
:103680000100000108400005014000051140000A4A
:1036900082A0010000000000F10380000100000092
:1036A000C0003000000081002000480000004200FF
:1036B000100084000000240009000200000018002F
:1036C00006000100000000F2581EF29325F2CF2EF2
:1036D000D6F2339BF02F62F12D34F02C27F03627F1
:1036E000F16128F19829F2D124D7F11A9CEF1161E8
:1036F000EF0B2FEF2022EF5822F09323F0CE24EF90
:10370000F022D5F018FDF01260F00D2BF0201BFF19
:10371000000000FF000000FFFFFFFF00000000FAB4
:1037200000260A92004101C300A100B5000000007C
:1037300000FB01CB012B029F01C301AF01A0010DD2
:103740000A0066756E636B696E6720696E2062722F
:103750006F004F5554204F4620444556204D4F444E
:083760004500372E302E300029
:00000001FF
